{
  "_format": "hh-sol-artifact-1",
  "contractName": "CredoraCertificate",
  "sourceName": "contracts/CredoraCertificate.sol",
  "abi": [
    {
      "inputs": [],
      "stateMutability": "nonpayable",
      "type": "constructor"
    },
    {
      "anonymous": false,
      "inputs": [
        {
          "indexed": true,
          "internalType": "bytes32",
          "name": "hash",
          "type": "bytes32"
        },
        {
          "indexed": true,
          "internalType": "address",
          "name": "issuedBy",
          "type": "address"
        },
        {
          "indexed": false,
          "internalType": "uint256",
          "name": "issuedAt",
          "type": "uint256"
        },
        {
          "indexed": false,
          "internalType": "string",
          "name": "certificateId",
          "type": "string"
        }
      ],
      "name": "CertificateIssued",
      "type": "event"
    },
    {
      "anonymous": false,
      "inputs": [
        {
          "indexed": true,
          "internalType": "bytes32",
          "name": "hash",
          "type": "bytes32"
        },
        {
          "indexed": true,
          "internalType": "address",
          "name": "revokedBy",
          "type": "address"
        },
        {
          "indexed": false,
          "internalType": "uint256",
          "name": "revokedAt",
          "type": "uint256"
        }
      ],
      "name": "CertificateRevoked",
      "type": "event"
    },
    {
      "anonymous": false,
      "inputs": [
        {
          "indexed": true,
          "internalType": "address",
          "name": "issuer",
          "type": "address"
        }
      ],
      "name": "IssuerAuthorized",
      "type": "event"
    },
    {
      "anonymous": false,
      "inputs": [
        {
          "indexed": true,
          "internalType": "address",
          "name": "issuer",
          "type": "address"
        }
      ],
      "name": "IssuerRevoked",
      "type": "event"
    },
    {
      "inputs": [
        {
          "internalType": "uint256",
          "name": "",
          "type": "uint256"
        }
      ],
      "name": "allHashes",
      "outputs": [
        {
          "internalType": "bytes32",
          "name": "",
          "type": "bytes32"
        }
      ],
      "stateMutability": "view",
      "type": "function"
    },
    {
      "inputs": [
        {
          "internalType": "address",
          "name": "_issuer",
          "type": "address"
        }
      ],
      "name": "authorizeIssuer",
      "outputs": [],
      "stateMutability": "nonpayable",
      "type": "function"
    },
    {
      "inputs": [
        {
          "internalType": "address",
          "name": "",
          "type": "address"
        }
      ],
      "name": "authorizedIssuers",
      "outputs": [
        {
          "internalType": "bool",
          "name": "",
          "type": "bool"
        }
      ],
      "stateMutability": "view",
      "type": "function"
    },
    {
      "inputs": [
        {
          "internalType": "bytes32",
          "name": "_hash",
          "type": "bytes32"
        },
        {
          "internalType": "string",
          "name": "_certId",
          "type": "string"
        }
      ],
      "name": "issueCertificate",
      "outputs": [],
      "stateMutability": "nonpayable",
      "type": "function"
    },
    {
      "inputs": [],
      "name": "owner",
      "outputs": [
        {
          "internalType": "address",
          "name": "",
          "type": "address"
        }
      ],
      "stateMutability": "view",
      "type": "function"
    },
    {
      "inputs": [
        {
          "internalType": "address",
          "name": "_issuer",
          "type": "address"
        }
      ],
      "name": "removeIssuer",
      "outputs": [],
      "stateMutability": "nonpayable",
      "type": "function"
    },
    {
      "inputs": [
        {
          "internalType": "bytes32",
          "name": "_hash",
          "type": "bytes32"
        }
      ],
      "name": "revokeCertificate",
      "outputs": [],
      "stateMutability": "nonpayable",
      "type": "function"
    },
    {
      "inputs": [],
      "name": "totalIssued",
      "outputs": [
        {
          "internalType": "uint256",
          "name": "",
          "type": "uint256"
        }
      ],
      "stateMutability": "view",
      "type": "function"
    },
    {
      "inputs": [
        {
          "internalType": "bytes32",
          "name": "_hash",
          "type": "bytes32"
        }
      ],
      "name": "verifyCertificate",
      "outputs": [
        {
          "internalType": "bool",
          "name": "exists",
          "type": "bool"
        },
        {
          "internalType": "bool",
          "name": "isRevoked",
          "type": "bool"
        },
        {
          "internalType": "address",
          "name": "issuedBy",
          "type": "address"
        },
        {
          "internalType": "uint256",
          "name": "issuedAt",
          "type": "uint256"
        },
        {
          "internalType": "string",
          "name": "certId",
          "type": "string"
        }
      ],
      "stateMutability": "view",
      "type": "function"
    }
  ],
  "bytecode": "0x608060405234801561001057600080fd5b50600080546001600160a01b03191633908117825580825260036020526040808320805460ff191660011790555190917f8b4006ca14f23d4e7aa8d120d1ab7c3761d650eefac1a5d6732dbea94b54ea2491a2610b3b806100726000396000f3fe608060405234801561001057600080fd5b50600436106100935760003560e01c80638da5cb5b116100665780638da5cb5b1461010a578063baf75ec714610135578063c6cbc52a14610148578063f5be31931461015b578063f731fa0f1461016357600080fd5b8063313ef09614610098578063436693d5146100be57806347bc7093146100d3578063850c1768146100e6575b600080fd5b6100ab6100a63660046107b1565b610196565b6040519081526020015b60405180910390f35b6100d16100cc3660046107ca565b6101b7565b005b6100d16100e13660046107ca565b6102b0565b6100f96100f43660046107b1565b610353565b6040516100b5959493929190610840565b60005461011d906001600160a01b031681565b6040516001600160a01b0390911681526020016100b5565b6100d1610143366004610898565b61049b565b6100d16101563660046107b1565b610653565b6002546100ab565b6101866101713660046107ca565b60036020526000908152604090205460ff1681565b60405190151581526020016100b5565b600281815481106101a657600080fd5b600091825260209091200154905081565b6000546001600160a01b031633146102165760405162461bcd60e51b815260206004820152601c60248201527f437265646f72613a2063616c6c6572206973206e6f74206f776e65720000000060448201526064015b60405180910390fd5b6001600160a01b0381166102645760405162461bcd60e51b8152602060048201526015602482015274437265646f72613a207a65726f206164647265737360581b604482015260640161020d565b6001600160a01b038116600081815260036020526040808220805460ff19166001179055517f8b4006ca14f23d4e7aa8d120d1ab7c3761d650eefac1a5d6732dbea94b54ea249190a250565b6000546001600160a01b0316331461030a5760405162461bcd60e51b815260206004820152601c60248201527f437265646f72613a2063616c6c6572206973206e6f74206f776e657200000000604482015260640161020d565b6001600160a01b038116600081815260036020526040808220805460ff19169055517f95a4c2ae425bb769549aa1a911911ff57c17ae811ae8c8962d0b9746fcb153979190a250565b6000818152600160208181526040808420815160a08101835281548152938101546001600160a01b031692840192909252600282015490830152600381015460ff1615156060838101919091526004820180548594859485949385936080840191906103be90610953565b80601f01602080910402602001604051908101604052809291908181526020018280546103ea90610953565b80156104375780601f1061040c57610100808354040283529160200191610437565b820191906000526020600020905b81548152906001019060200180831161041a57829003601f168201915b50505050508152505090508060400151600003610470575050604080516020810190915260008082529450849350839250829150610492565b6001816060015182602001518360400151846080015195509550955095509550505b91939590929450565b3360009081526003602052604090205460ff16806104c357506000546001600160a01b031633145b6104df5760405162461bcd60e51b815260040161020d9061098d565b6000828152600160205260409020600201541561054a5760405162461bcd60e51b815260206004820152602360248201527f437265646f72613a20636572746966696361746520616c7265616479206973736044820152621d595960ea1b606482015260840161020d565b6040805160a08101825283815233602080830191825242838501908152600060608501818152608086018881528983526001948590529690912085518155935192840180546001600160a01b0319166001600160a01b03909416939093179092555160028301555160038201805460ff1916911515919091179055915190919060048201906105d99082610a24565b5050600280546001810182556000919091527f405787fa12a823e0f2b7631cc41b3ba8828b3321ca811111fa75cd3aa3bb5ace0183905550604051339083907f2adbda0e8dd8e8edf3119103d5c8ee99398b830832445a985ab53340b1a373aa906106479042908690610ae4565b60405180910390a35050565b3360009081526003602052604090205460ff168061067b57506000546001600160a01b031633145b6106975760405162461bcd60e51b815260040161020d9061098d565b60008181526001602052604081206002015490036106f75760405162461bcd60e51b815260206004820152601e60248201527f437265646f72613a206365727469666963617465206e6f7420666f756e640000604482015260640161020d565b60008181526001602052604090206003015460ff16156107595760405162461bcd60e51b815260206004820152601860248201527f437265646f72613a20616c7265616479207265766f6b65640000000000000000604482015260640161020d565b600081815260016020818152604092839020600301805460ff19169092179091559051428152339183917f85fe6dd2dfc4757558754564c7ff020182ec3c918257c2ff3a217a63791ec24f910160405180910390a350565b6000602082840312156107c357600080fd5b5035919050565b6000602082840312156107dc57600080fd5b81356001600160a01b03811681146107f357600080fd5b9392505050565b6000815180845260005b8181101561082057602081850181015186830182015201610804565b506000602082860101526020601f19601f83011685010191505092915050565b8515158152841515602082015260018060a01b038416604082015282606082015260a06080820152600061087760a08301846107fa565b979650505050505050565b634e487b7160e01b600052604160045260246000fd5b600080604083850312156108ab57600080fd5b82359150602083013567ffffffffffffffff808211156108ca57600080fd5b818501915085601f8301126108de57600080fd5b8135818111156108f0576108f0610882565b604051601f8201601f19908116603f0116810190838211818310171561091857610918610882565b8160405282815288602084870101111561093157600080fd5b8260208601602083013760006020848301015280955050505050509250929050565b600181811c9082168061096757607f821691505b60208210810361098757634e487b7160e01b600052602260045260246000fd5b50919050565b60208082526028908201527f437265646f72613a2063616c6c6572206973206e6f7420617574686f72697a65604082015267321034b9b9bab2b960c11b606082015260800190565b601f821115610a1f57600081815260208120601f850160051c810160208610156109fc5750805b601f850160051c820191505b81811015610a1b57828155600101610a08565b5050505b505050565b815167ffffffffffffffff811115610a3e57610a3e610882565b610a5281610a4c8454610953565b846109d5565b602080601f831160018114610a875760008415610a6f5750858301515b600019600386901b1c1916600185901b178555610a1b565b600085815260208120601f198616915b82811015610ab657888601518255948401946001909101908401610a97565b5085821015610ad45787850151600019600388901b60f8161c191681555b5050505050600190811b01905550565b828152604060208201526000610afd60408301846107fa565b94935050505056fea26469706673582212204195daa013b70b1a1cd507e711bd44037e08d1a7997906a927d207c7599a00e264736f6c63430008140033",
  "linkReferences": {},
  "deployedLinkReferences": {}
}